:1000000019C028C0E5C026C025C024C023C022C016
:1000100021C020C01FC01EC01DC01CC0BCC01AC053
:1000200019C018C017C03030302E545854002E5705
:100030004156000011241FBECFE5D2E0DEBFCDBF88
:1000400011E0A0E6B0E001C01D92AC3BB107E1F7C2
:1000500010D185CCD5CFA895019728F0E0EAFFE034
:100060003197F1F7F8CF089572E07A95F1F701979B
:10007000D9F7A895089584E089BB89BB89BB89BB62
:1000800089BB89BB89BB89BB89BB89BB89BB89BB50
:1000900089BB89BB89BB89BB00008FB1089594E0FF
:1000A0006BB378E087FB61F96BBB880F99BB99BB99
:1000B0007A95C1F7D99A0895DC01FB0122E032E07C
:1000C0002E1B3F0B241B350B84E0319788F089BB36
:1000D00089BB89BB89BB89BB89BB89BB89BB89BB00
:1000E00089BB89BB89BB89BB89BB89BB89BBEDCF78
:1000F000109731F0C0DF8D9341505040D9F736C092
:1001000054995695549947955199569551994795B3
:1001100060916400AFE7B0E0A60FB11D809190013F
:100120008C3FE0F7A8DFEE27549B03C0E82FA3DF46
:100130008058F82F519B0BC09EDF9927549B03C01A
:10014000982F99DF8058E90FF81FF795E795ED9301
:10015000FD93F894809190018E5F80939001789444
:100160006E5F41505040B1F66093640084E089BBFB
:1001700089BB89BB89BB89BB89BB89BB89BB89BB5F
:1001800089BB89BB89BB89BB89BB89BB89BB215022
:10019000304069F708958F938FB78F93EF93FF9354
:1001A00080919001825070F080939001E091650001
:1001B000FF27E158FF4F81918CBD81918DBDEF5795
:1001C000E0936500FF91EF918F918FBF8F9118950C
:1001D0001895A89589B396B392959770887F982BB8
:1001E000909580E28ABF209160009093600029176B
:1001F00051F480916100821731F0209361002093C7
:100200008F0181E0089580E008951F93182F88ECF6
:1002100090E021DFC29A84E690E01DDFC298115081
:10022000B1F788EE93E017DF1F910895FF920F93C7
:100230001F93892B21F400E8FF24FA9403C000E007
:10024000FF24F39410E80F0D0DBD0CBD84E690E083
:100250000BDF1150C1F71F910F91FF90089583B7E5
:10026000882331F013BE80E090E0E0DF10BE1FBCB9
:100270000895A0E0B0E0EEE3F1E033CB14BE8EE0F1
:1002800081BD85B7877E806185BF88EF83BD80E7AC
:1002900082BD8BEF8BBB86E08ABB81E788BB8FE09A
:1002A00087BB789481E991E0C8D8892B09F043C2D3
:1002B0008FE790E066E270E04BDB8FE790E03ED79F
:1002C000892B61F48EE790E061E070E04CE750E04C
:1002D00089D780917E00805380937E0022242394CE
:1002E00080918F01882319F5BADF1AE08AE090E047
:1002F000B2DE6FDF115021F080918F018823B1F3BE
:1003000080918F01882399F4F89420E22BBF68E153
:1003100061BD11BC85B7806285BF7894889585B72B
:100320008F7D85BFA8958EE081BD1BBEDECF30904E
:100330008F0180917E00823010F010928F01832D0A
:100340006AE0A1DA905D90938100832D9CDA282FDA
:100350009ADA905D90938000822F95DA94DA905D1E
:1003600090937F0082E890E06EE270E0F1DA8FE730
:1003700090E0E4D68330910511F413E0CFC1892BCE
:1003800009F0E8C18FE790E06CE070E04CE750E0E6
:1003900029D7892B09F0D2C180917C0090917D00F2
:1003A0000C9709F0D1C18091870090918800A091AD
:1003B0008900B0918A0087559144A645B54409F05B
:1003C000C3C1DD248FE790E068E070E04CE750E0C7
:1003D00009D7892B09F0B2C180917C0090917D00F2
:1003E000089709F0B1C1E0908300F090840000917B
:1003F00085001091860080917F0090918000A091EF
:100400008100B09182008C3469E4960763E5A60709
:1004100064E5B60709F4B4C08D3429E4920723E5F6
:10042000A20724E5B20778F486366DE6960764E7FE
:10043000A60760E2B607B9F084549944A345B045D5
:1004400009F082C19DC0843661E6960764E7A6077D
:1004500061E6B60709F461C086569146A346B447E3
:1004600009F072C18DC0C70181709070892B29F08D
:100470000894E11CF11C011D111DD801C701409712
:10048000A109B10981379105A105B10508F05CC149
:100490008FE790E0B7014CE750E0A4D6892B09F034
:1004A0004DC180917C0090917D00A0E0B0E08E1560
:1004B0009F05A007B10709F047C180917F008130F7
:1004C00009F042C1D0908100DAB890918D00983047
:1004D00019F0903109F038C18AB1892B8AB994FD9D
:1004E000DD0C209183003091840040918500509173
:1004F0008600DA01C90180549F41A040B040815478
:100500009C49A040B04008F01FC160E874E88EE14B
:1005100090E0C5D9215023BB55CFDD2009F414C18B
:1005200080E0E81684E0F80680E0080780E018071D
:1005300008F40AC18D2D90E001979C01442737FDF6
:100540004095542FDA01C9018E219F21A023B123A8
:100550000097A105B10509F0F7C08091A70190911E
:10056000A801A091A901B091AA01282339234A2307
:100570005B23211531054105510509F0E5C01DC07A
:10058000C70181709070892B29F00894E11CF11C3F
:10059000011D111D8091A7019091A801A091A901B1
:1005A000B091AA01E80EF91E0A1F1B1FC801B7016E
:1005B000C1D2892B09F406CFC1C025E0E216F104AF
:1005C0000105110510F41E2DA7C04090A701509001
:1005D000A8016090A9017090AA01C29A83B78823EC
:1005E00099F410929001109265001092640066E0F8
:1005F00069BD83EA80BF2FBC81E090E017DE25BA99
:1006000022E023BF80E189BF8091A7019091A801DA
:10061000917060E072E0681B790B80E090E04CE73D
:1006200050E0E0D5892B09F06AC080917C00909160
:100630007D00A0E0B0E057016801A81AB90ACA0A13
:10064000DB0A61E0A61664E0B60660E0C60660E07C
:10065000D60618F0C0E0D4E001C0E50180E090E0EB
:10066000BE014CE750E0BED580907C0090907D00AC
:10067000C815D90509F043C0ACDD882329F1809164
:100680007E008230A9F0833028F48823C9F08130BD
:10069000D9F411C0833039F08430B1F480918F01E6
:1006A000882379F111C080918F01882351F50CC006
:1006B00010928F0109C080918F01882329F002C018
:1006C00080918F018315E9F480917C0090917D00E9
:1006D0008050944021F4C401A0E0B0E0AECF8091FE
:1006E0008F01882381F080917E00823060F4C30105
:1006F000B20120D2892B09F487CF13E005C012E0A4
:1007000003C011E001C010E0809190018823E1F75F
:1007100060E86DBD6CBDC298123018F0812F75DD98
:1007200004C0113009F4DCCD10E010928F011230BA
:1007300009F0D6CD94DD82E068DDB4CD92E0E92EFB
:10074000F12C012D112D3FCF84E0E82EF12C012D4D
:10075000112D39CF12E0E2CFA0E0B0E0E1EBF3E001
:10076000CAC86C01C0916200D0916300FC01118283
:100770001082248135814681578121303105410520
:10078000510509F45BC08E819F81A885B985281722
:1007900039074A075B0708F051C0211531054105AB
:1007A000510539F48881833021F42E853F854889AD
:1007B0005989F601208731874287538721153105F2
:1007C0004105510579F18EEFE82E8FEFF82E8FEF6E
:1007D000082F8FEF182FE20EF31E041F151F8E81B6
:1007E0009F81A885B9850297A109B109E816F90684
:1007F0000A071B0728F020E030E040E050E016C078
:100800002A8130E040E050E0C801B70123D89B01C5
:10081000AC018A899B89AC89BD89280F391F4A1F81
:100820005B1F04C02E853F8548895989F6012487BE
:1008300035874687578720E030E002C021E030E06E
:10084000C901CDB7DEB7E8E072C8A4E0B0E0EAE2E3
:10085000F4E04BC84B015C01609062007090630053
:1008600082E088169104A104B10408F4B0C0F30139
:1008700086819781A085B18588169906AA06BB0650
:1008800008F0A5C08081823009F45DC0833009F48E
:1008900078C0813009F09BC0C40196958795880D7A
:1008A000991D9C013170892F992786956C01EE2442
:1008B000FF24F3014285538564857585CE01019639
:1008C000F1E02F3F3F0749F0C40ED51EE61EF71E8C
:1008D000B701A60102E010E01DC04C0D5D1D6E1DAC
:1008E0007F1D2FEF31E001E010E0E8D6892B09F001
:1008F0006EC0F30142855385648575854F5F5F4FF8
:100900006F4F7F4F4C0D5D1D6E1D7F1DCE010296FA
:1009100020E030E0D3D6892B09F059C069817A8173
:10092000C40181709070892B39F0A4E076956795A9
:10093000AA95E1F79B0122C09B0140E050E03F7087
:100940004070507048C077276B2D5A2D492DF30108
:1009500082859385A485B585480F591F6A1F7B1F23
:1009600094013070220F331FCE01019602E010E097
:10097000A5D6892B61F589819A819C0140E050E0E0
:100980002AC0B501A40127E076956795579547954C
:100990002A95D1F7F30182859385A485B585480F03
:1009A000591F6A1F7B1F94012F773070220F331F4E
:1009B000220F331FCE01019604E010E07FD6892B71
:1009C00031F429813A814B815C815F7004C021E060
:1009D00030E040E050E0B901CA012496EEE0A1C742
:1009E000A0E0B0E0E5EFF4E084C75C01C0916200F4
:1009F000D0916300FC01C080D1800894C11CD11C3F
:100A0000C114D10409F48FC02485358546855785E6
:100A1000211531054105510509F485C0C6018F70C6
:100A20009070892B09F079C02F5F3F4F4F4F5F4F78
:100A3000248735874687578740855185628573852A
:100A4000411551056105710539F48C819D81C816E8
:100A5000D90608F462C067C08A8190E001979601C8
:100A6000E4E036952795EA95E1F782239323892BD5
:100A700009F053C0CB01BA01E8DE9B01AC01623042
:100A800071058105910518F421E030E04EC08E819A
:100A90009F81A885B985281739074A075B0708F0A1
:100AA00042C0F5012087318742875387C091620099
:100AB000D09163008EEFE82E8FEFF82E8FEF082F86
:100AC0008FEF182FE20EF31E041F151F8E819F81DA
:100AD000A885B9850297A109B109E816F9060A07A0
:100AE0001B0728F020E030E040E050E011C02A81F0
:100AF00030E040E050E0C801B701ACD69B01AC014A
:100B00008A899B89AC89BD89280F391F4A1F5B1FC1
:100B1000F5012487358746875787F501D182C08242
:100B200020E030E002C023E030E0C901CDB7DEB7FD
:100B3000EAE0FBC6A0E0B0E0EFE9F5E0D2C6E82FBE
:100B4000C0916200D0916300209719F426E030E054
:100B500001C1898180FD03C025E030E0FBC0EA8C43
:100B6000FB8C0C8D1D8D4E2F592FCB01DA013C01D2
:100B70004D01E614F7040805190510F43701480182
:100B8000EE88FF88088D198D1E8A1F8A188E198E8F
:100B9000611471048104910409F4D6C08A81A82EDD
:100BA000BB24CC24DD24B9E0AA0CBB1CCC1CDD1C6E
:100BB000BA95D1F7E114F10401051105A1F117016E
:100BC000280108942108310841085108C401B301E3
:100BD0006150704080409040A601950160D6790137
:100BE0008A01C201B101A601950159D6E216F306A8
:100BF00004071507C0F088279927DC018A199B098B
:100C0000AC09BD0982219321A421B5218E8B9F8B34
:100C1000A88FB98F681A790A8A0A9B0A2AA13BA170
:100C20004CA15DA132C02E8D3F8D48A159A12AA3B0
:100C30003BA34CA35DA329C0CA01B90106DE9B01F9
:100C4000AC01623071058105910508F480C08E8188
:100C50009F81A885B985281739074A075B0708F0DF
:100C600076C02AA33BA34CA35DA38E899F89A88D40
:100C7000B98D8A0D9B1DAC1DBD1D8E8B9F8BA88FC2
:100C8000B98F6A187B088C089D08A614B704C8049D
:100C9000D90490F2EE88FF88088D198DE60CF71CB8
:100CA000081D191DEE8AFF8A088F198F8090620037
:100CB00090906300AEEFAA2EAFEFBA2EAFEFCA2E20
:100CC000AFEFDA2EA20EB31EC41ED51EF40186812C
:100CD0009781A085B1850297A109B109A816B90627
:100CE000CA06DB06A0F5228130E040E050E0C601F4
:100CF000B501B0D59B01AC01F40182899389A48927
:100D0000B589280F391F4A1F5B1F21153105410581
:100D10005105E9F0F9E016950795F794E794FA95EF
:100D2000D1F78A8190E00197AA2797FDA095BA2F65
:100D3000E822F9220A231B232E0D3F1D401F511FBD
:100D40002EA33FA348A759A720E030E003C0198293
:100D500021E030E0C901CDB7DEB7E2E1DEC5ACE2AB
:100D6000B0E0E4EBF6E0C5C57C016B018091620068
:100D700090916300892B19F426E030E0B6C0CE01D3
:100D80000196D70113969C938E9312976115710566
:100D900041F023E030E08DE0A82EB12CAC0EBD1E5A
:100DA00028C0C701D9DC9C01A0C0F7012081318196
:100DB0002F70307015E0220F331F1A95E1F7C5012F
:100DC00000E210E07BD4892B19F021E030E020C054
:100DD0009D85992309F48DC0888D953E29F09E321A
:100DE00019F08F7383FF20C0C701FADD9C010097C3
:100DF00079F4D7011C964D915D916D917C911F976F
:100E0000411551056105710581F62115310561F026
:100E1000F70114861586168617862330310521F0D2
:100E20002115310509F061C09601275F3F4FF70199
:100E300084859585A685B7850097A105B10509F438
:100E400043C0FE013D96AE014B5E5F4F8081803214
:100E500051F0853009F485EED9018D939D013196CD
:100E6000E417F50799F78D89803299F08EE2F90140
:100E700081939F01FE017596AE01485E5F4F8081B0
:100E8000803239F0D9018D939D013196E417F50731
:100E9000B1F7888DF6018087FE013D96448D558D12
:100EA000668D778DD6014D935D936D937C931397EB
:100EB000808D918D15969C938E9314978689978932
:100EC00017969C938E931697F9011082C70188DDBF
:100ED0009C018330910549F4D7011C961D921D9207
:100EE0001D921C921F9720E030E0C901AC96EAE009
:100EF0001CC523E030E08CCFA0E0B0E0E1E8F7E0F3
:100F0000F3C47C015B016A0103C00894C11CD11CBD
:100F1000D6018C918032C9F38F3219F40894C11C28
:100F2000D11CF7011482158216821782D6018C918A
:100F3000813230F4C70110DCEC01F5011082A6C04B
:100F4000A0E25A2E66246394FBE08F2E912C8A0C2B
:100F50009B1CF701A281B381FD01CD010B9601C05D
:100F60005192E817F907E1F720E0772438E002C052
:100F700028E03BE0F601E70DF11D9081739491327A
:100F8000B0F09F32A1F09E3211F0231728F03830D4
:100F900071F49E3269F30BC0892F81568A3108F4AF
:100FA0009052FD01E20FF11D90832F5FE3CF1B965E
:100FB0001C921B97913210F41B966C92C701CCDBEC
:100FC000EC010097B1F5D7011C964D915D916D91A3
:100FD0007C911F972D913C912F703070E5E0220F8E
:100FE000331FEA95E1F7C50100E210E067D3892BD2
:100FF00019F081E090E01CC0F5018081882309F49C
:101000004AC0D4018C9183FD0FC0F701A281B38146
:10101000F501E815F90509F441C090818C91981704
:1010200019F431961196F5CFC701DADC009759F221
:10103000EC01C330D10551F5D7011296ED91FC9129
:1010400013978385882301F121C0F401808184FFF7
:101050001BC0C70CD11CD50154968D919C915597FE
:10106000A0E0B0E0DC0199278827F501228D338DBF
:1010700040E050E0822B932BA42BB52BF701848307
:101080009583A683B78365CFC4E0D0E0CE01CDB70A
:10109000DEB7EFE045C4C3E0D0E0CBCFD701129676
:1010A000ED91FC9113978385882379F2EFCFACE221
:1010B000B0E0ECE5F8E021C48C01AB018091620066
:1010C00090916300892B19F426E030E033C0CE0103
:1010D0000196F801938382833DE0E32EF12CEC0E20
:1010E000FD1EC801B70108DF9C010097F1F48D8552
:1010F0008823C1F0888D84FF1BC0F70184899589FE
:10110000A0E0B0E0DC0199278827228D338D40E0F4
:1011100050E0822B932BA42BB52BF801848395836D
:10112000A683B783C80118DB9C012330310511F475
:1011300024E030E0C901AC96E6E0FBC3ACE3B0E0EC
:10114000E3EAF8E0DAC3AC010091620010916300B9
:101150000115110519F466E070E040C0F801118234
:10116000CE010196988B8F876DE1E62EF12CEC0E67
:10117000FD1ECE010D96B701BFDEBC01009771F5D3
:101180008D8D882349F188A584FD26C0F7018489C7
:101190009589A0E0B0E0DC0199278827228D338D66
:1011A00040E050E0822B932BA42BB52BF801868FC7
:1011B000978FA0A3B1A3F701848D958DA68DB78DD0
:1011C000F801828F938FA48FB58F168A178A108E9D
:1011D000118E81E0818302C063E070E0CB01EC9668
:1011E000E6E0A7C3A0E0B0E0E7EFF8E07CC33C0195
:1011F0006B014A01C0916200D0916300FA01118233
:101200001082209719F426E030E0CAC0898180FD61
:1012100003C025E030E0C4C02A8D3B8D4C8D5D8D30
:101220008E899F89A88DB98D281B390B4A0B5B0BC2
:10123000CB01A0E0B0E0281739074A075B0708F4A4
:1012400069015301412CE2E05E2EA0C02E893F8946
:10125000488D598DDA01C9019170A070B070009766
:10126000A105B10509F05EC0DA01C90179E0B695C2
:10127000A795979587957A95D1F7FA80FA94F822F1
:10128000C9F4211531054105510529F46E8D7F8D75
:1012900088A199A105C06AA17BA18CA19DA1D5DAE5
:1012A000623071058105910508F477C06AA37BA3BC
:1012B0008CA39DA300916200109163002AA13BA121
:1012C0004CA15DA12250304040405040F801868141
:1012D0009781A085B1850297A109B109281739071F
:1012E0004A075B0708F059C0628170E080E090E037
:1012F000B1D29B01AC01F80182899389A489B58997
:10130000280F391F4A1F5B1F211531054105510563
:1013100009F443C02F0D311D411D511D2EA33FA3C4
:1013200048A759A72E893F893170C201821B930BB0
:1013300076018C159D0508F47C016114710419F483
:1013400080E090E001C0C5014EA15FA168A579A52C
:101350008701B4D1892B09F5C701A0E0B0E02E893F
:101360003F89488D598D280F391F4A1F5B1F2E8BCF
:101370003F8B488F598FAE0CBF1CCE18DF08F4018D
:10138000808191818E0D9F1D91838083C114D10432
:1013900009F05CCF20E030E003C0198221E030E0AA
:1013A000C901CDB7DEB7E0E1BAC2A0E0B0E0EAED36
:1013B000F9E09FC2B82EA92E6A017B012EEF31E021
:1013C00002E010E07BD1892B11F023E031C0CB2D5E
:1013D000DA2D8881998185559A4A11F022E028C03A
:1013E0008B2D9A2DB701A60126E330E002E010E034
:1013F00065D1892B39F4888199818654914411F4FF
:1014000020E016C08B2D9A2DB701A60122E530E011
:1014100002E010E053D1892B11F021E009C020E057
:10142000888199818654914409F421E081E028273C
:10143000822FCDB7DEB7EAE078C2A4E2B0E0E2E204
:10144000FAE053C25C0110926300109262000097B0
:1014500009F4E6C063D180FF03C022E030E0E8C0B9
:101460004E010894811C911CC40140E050E060E0F2
:1014700070E09BDF813021F0CC24DD24760119C09F
:10148000C40140E050E060E070E02EEB31E000E1AC
:1014900010E014D1892B09F0C6C08D81882309F48E
:1014A000C5C0C984DA84EB84FC84C401B701A601F9
:1014B0007CDF833009F4B7C0882309F0B7C0CE01C0
:1014C0000196B701A6012DE030E004E210E0F6D06D
:1014D000892B09F0A8C08A859B85BC0180E090E03B
:1014E000611571058105910521F4688D798D8A8DCD
:1014F0009B8D2C8130E040E050E0ACD13B014C01B1
:101500008A819B81A0E0B0E0C80ED91EEA1EFB1EB6
:10151000F501C286D386E486F586898182832D8192
:101520003E81358324838F8198857C0100E010E023
:10153000E114F1040105110521F4EC88FD880E8900
:101540001F898A819B81A0E0B0E0E81AF90A0A0BA2
:101550001B0BE618F70808091909B4E0369527951A
:10156000BA95E1F7C901A0E0B0E0E81AF90A0A0B60
:101570001B0BF501228130E040E050E0C801B701CB
:101580008ED12E5F3F4F4F4F5F4FF501268337833C
:1015900040875187273FFFE03F07F0E04F07F0E02B
:1015A0005F0710F481E001C082E0275F3F4F4040B9
:1015B000504008F083E0F5018083833029F488A14E
:1015C00099A1AAA1BBA109C0F50182859385A48533
:1015D000B585860D971DA81DB91D86879787A08B99
:1015E000B18BF50184819581A4E096958795AA95A4
:1015F000E1F7A0E0B0E02285338544855585820F70
:10160000931FA41FB51F860D971DA81DB91D828BA2
:10161000938BA48BB58B1182B0926300A092620071
:1016200020E030E005C021E030E002C027E030E0FB
:10163000C901A496EEE075C1DF92EF92FF920F937D
:101640001F93D82E7A018B0187FF0AC087E740E0FD
:1016500050E060E070E0F0DF823050F58FE7D82294
:10166000C09A09D5C09807D58D2D19D5812F9927F6
:10167000AA27BB2714D5C801AA27BB2710D5BB278B
:10168000A12F902F8F2D0BD58E2D09D580E4D81644
:1016900011F485E906C088E4D81611F487E801C082
:1016A00081E0FDD41AE0E7D487FF02C01150D9F7DA
:1016B0001F910F91FF90EF90DF900895A0E0B0E0B0
:1016C000E3E6FBE018C16C0179018091BB0183FD69
:1016D00007C039E0440F551F661F771F3A95D1F7B1
:1016E00081E5AADF882389F4C0E3D5E7C4D48F3F1E
:1016F00019F42197D9F709C08E3F39F4C601B70113
:10170000A801DAD400E010E002C001E010E0C09AC5
:10171000B2D4C801CDB7DEB7E8E009C1A4E0B0E0BB
:10172000E3E9FBE0E8C081E081BB88E08DB90AE035
:1017300010E0A1D401501040E1F7C09808E512E094
:101740009AD401501040E1F780E440E050E060E0BE
:1017500070E072DF813009F05EC088E44AEA51E04F
:1017600060E070E069DF8130B1F56E010894C11C62
:10177000D11C76018E010B5F1F4F7DD4F701819341
:101780007F01E017F107C9F78B81813009F043C071
:101790008C818A3A09F03FC008EA11E603C0015083
:1017A0001040C9F189EE40E050E060E070E444DFB1
:1017B0008823A9F73CC05FD4F60181936F01EE1531
:1017C000FF05C9F7898186FD03C0E4E0FE2E24C031
:1017D0007CE0F72E21C089EE40E050E060E070E050
:1017E0002BDF823028F061E4E62EFF24F39404C05E
:1017F00059EEE52E42E0F42E08EA11E603C001504E
:10180000104049F08E2D40E050E060E070E014DFC1
:101810008823A9F716C0FF24F092BB01C09A2BD4ED
:1018200080E0FF2009F481E02496E8E080C08AE7A8
:1018300040E050E060E070E0FFDE882309F4BBCFB9
:10184000EACF80E540E052E060E070E0F5DE88231A
:1018500011F7E2CFFF27EE27BB27AA2760FF04C0BE
:10186000A20FB31FE41FF51F220F331F441F551F84
:10187000969587957795679589F70097760771F71D
:10188000CF01BD010895991B79E004C0991F9617F7
:1018900008F0961B881F7A95C9F780950895A1E2F4
:1018A0001A2EAA1BBB1BFD010DC0AA1FBB1FEE1FDA
:1018B000FF1FA217B307E407F50720F0A21BB30B25
:1018C000E40BF50B661F771F881F991F1A9469F7A1
:1018D00060957095809590959B01AC01BD01CF01FD
:1018E00008952F923F924F925F926F927F928F92C4
:1018F0009F92AF92BF92CF92DF92EF92FF920F939F
:101900001F93CF93DF93CDB7DEB7CA1BDB0B0FB6A8
:10191000F894DEBF0FBECDBF09942A883988488865
:101920005F846E847D848C849B84AA84B984C884FB
:10193000DF80EE80FD800C811B81AA81B981CE0FF2
:10194000D11D0FB6F894DEBF0FBECDBFED010895D7
:10195000FB01DC0105900D920020E1F70895F89459
:02196000FFCFB7
:00000001FF
